:0300000002080CE7
:0100030032CA
:03000B00020419D3
:0100130032BA
:01001B0032B2
:0100230032AA
:03002B0002044983
:10002E00C000788500D8FDD00022C000C00179281C
:10003E007868D8FED9FADAF6D001D00022D294121E
:10004E00002EC29422A2E79283A2E69282A2E592A9
:10005E0081A2E4928012004B12002EA2E39283A2A0
:10006E00E29282A2E19281A2E0928012004B22D211
:10007E0093020053C293020053C294C0027A281214
:10008E000038D0027433120082743312008274323C
:10009E001200827428120082740C120082740112F3
:1000AE000082C0027A02120038D00222E493600667
:1000BE0012007DA380F62244404480020082C0E0FC
:1000CE00E8C4540F443012007DE8540F443012003F
:1000DE007DD0E022C0E0E9540F443012007DE8C428
:1000EE00540F443012007DE8540F443012007DD07E
:0200FE00E022FE
:10010000C0E0C0D0C000C001C002E4F54DF54EF51E
:100110004FF550F5517A20E548A2E779047845E695
:1001200033F608D9FA7905784DE636D4F608D9F9C8
:10013000DAE5D002D001D000D0D0D0E022C0E0C0BB
:10014000D0C000C001C002E4F54DF54EF54FF550AA
:10015000F5517A20E548A2E779047845E633F608B8
:10016000D9FA7905784DC0D0E6243320E70224D0AF
:1001700020E30224FDD0D033F608D9EADAD6D00243
:10018000D001D000D0D0D0E022C0E0C0D0C000C0AC
:1001900001C0027A207905C37851E613C0D030E758
:1001A0000224D030E30224FDF618D0D0D9EC790433
:1001B0007848E613F618D9FADADBD002D001D0007D
:1001C000D0D0D0E022C0E0C0D0E5452549F545E5D6
:1001D00046354AF546E547354BF547E548354CF594
:1001E00048D0D0D0E022C0E0C0D0C3E5459549F565
:1001F00045E546954AF546E547954BF547E548956B
:100200004CF548D0D0D0E022C0E0C0D0C3E5459541
:1002100049E546954AE547954BE548954C9210D0FF
:10022000D0D0E022C0E0C0D0C3E5499545E54A956D
:1002300046E54B9547E54C95489210D0D0D0E0224A
:10024000C0E0C0D0C210C3E54995457014E54A9599
:1002500046700EE54B95477008E54C95487002D204
:1002600010D0D0D0E022120240201003020224223B
:1002700012024020100302020822C0E0C0F0C0D0E9
:10028000C000C001C002C003E5458549F0A4F8A93B
:10029000F0E5468549F0A429F9E435F0FAE545850D
:1002A0004AF0A429F9E5F03AFAE433FBE547854939
:1002B000F0A42AFAE5F03BFBE546854AF0A42AFAC9
:1002C000E5F03BFBE545854BF0A42AFAE5F03BFB66
:1002D000E5488549F0A42BFBE547854AF0A42BFBB4
:1002E000E546854BF0A42BFBE545854CF0A42BFBA4
:1002F0008B488A4789468845D003D002D001D00078
:10030000D0D0D0F0D0E022C0E0C0D0C000C001C04A
:1003100002C003C0047C20E4F8F9FAFBC3E54533CE
:10032000F545E54633F546E54733F547E54833F50A
:1003300048E833F8E933F9EA33FAEB33FBC3E895DD
:1003400049E9954AEA954BEB954C4013E89549F8F5
:10035000E9954AF9EA954BFAEB954CFB434501DCEC
:10036000BBD004D003D002D001D000D0D0D0E02246
:1003700075AC0075AD0075B30075B40075B100754E
:10038000B200438E1043878075985253C4DF53895F
:100390000F438920758DF7D28EC28C438E08538906
:1003A000F043890143B11053B2EF53E8F043E8053D
:1003B00075F60043F61043E1012254494D453A7861
:1003C000782053746174653A2078782020503A7808
:1003D0007800532020202C202020522020202C2068
:1003E000202020006F6E20006F662000546F3A209E
:1003F00020202C54723A2020202020202020202051
:10040000202000438E08E58954F04401F589758C5D
:10041000F0758A2CD2A9D28C22C28C758CF0758A88
:100420002CD28C200403C29732B2973275C8007563
:10043000CDBF75CC2843C98075CBBF75CA28E4F5FC
:1004400030F531439B80D2CA22C2CFB284C0E0C013
:10045000D00530E530701805310567C3E56895674C
:10046000B39290E567B464327567000569D201E51F
:1004700030B4E826E531B40321D200B28CE4F53083
:10048000F531E5322401D4F5325009E5332401D4A5
:10049000F5338000D4F5321208BBD0D0D0E032C2A0
:1004A0008CC28D758CBF758A28D28C308DFD22123E
:1004B000049FDAFB223099FDC299F59922E49360FA
:1004C000061204B5A380F622E4F538F539F53AF5BD
:1004D0003B7B0A53E8F043E805C2EFD2EE30EFFD74
:1004E000E5C3C4C0E0540FF9D0E054F045C2F88829
:1004F0004589467547007548007549DF754AC075DE
:100500004B00754C0012027A7549FF754A0F754B06
:1005100000754C001203077549A4754A6A754B00B3
:10052000754C001201E6754964754A00754B0075FB
:100530004C0012027A8545408546418547428548F0
:100540004353E8F043E807C2EFD2EE30EFFDE5C3D6
:10055000C4C0E0540FF9D0E054F045C2F888458992
:10056000467547007548007549DF754AC0754B00F0
:10057000754C0012027A7549FF754A0F754B00756C
:100580004C001203077549F4754A00754B00754C11
:100590000012027A85404985414A85424B85434C89
:1005A0001201C585384985394A853A4B853B4C123D
:1005B00001C585453885463985473A85483BDB3650
:1005C000853845853946853A47853B4875490A75DA
:1005D0004A00754B00754C001203077AFA1204AFFB
:1005E0007AFA1204AF7AFA1204AF7AFA1204AF124E
:1005F00001001205FA220204D322E550C4540F442C
:10060000301204B5E550540F44301204B5E54FC420
:10061000540F44301204B5E54F540F44301204B562
:10062000E54EC4540F44301204B5E54E540F443027
:100630001204B5742C1204B520051A20061B2007DD
:100640001C20081D20091E200A1F740D1204B574F9
:100650000A1204B52202066D2202068C2202071A33
:10066000220206D3220207612202078A227449125B
:1006700004B574641204B5746C1204B57465120484
:10068000B5740D1204B5740A1204B5227452120422
:10069000B574611204B5746D1204B574701204B5AA
:1006A00074201204B574541204B5746F1204B57436
:1006B000201204B574531204B5746F1204B574613A
:1006C0001204B5746B1204B5740D1204B5740A12D9
:1006D00004B52274501204B574721204B574651214
:1006E00004B574681204B574651204B5746112041B
:1006F000B574741204B5742F1204B574531204B592
:10070000746F1204B574611204B5746B1204B5747D
:100710000D1204B5740A1204B52274521204B57491
:10072000611204B5746D1204B574701204B57420AE
:100730001204B574541204B5746F1204B574201207
:1007400004B574501204B574651204B574611204D2
:10075000B5746B1204B5740D1204B5740A1204B5A5
:100760002274521204B574651204B574661204B58D
:10077000746C1204B5746F1204B574771204B574F6
:100780000D1204B5740A1204B52274431204B57430
:100790006F1204B5746F1204B5746C1204B57469E9
:1007A0001204B5746E1204B574671204B5740D1298
:1007B00004B5740A1204B522D20BD20CD20DD20E9B
:1007C000D20FD295C280C281C282C283C2932095C9
:1007D0003A7A141204AF209532D280D281D282D2DA
:1007E00083D293C293A295920CD293C280A2959287
:1007F0000DD280C281A295920ED281C282A2959220
:100800000FD282C283A295920BD2832275817F750B
:10081000B10075B20075B30075B40075AD0075AD6B
:100820000012037012040312042CD2AF120087C20C
:1008300003C0E07401141200C7D0E0C083C082C0BE
:10084000E09003BA1200BAD0E0D082D083C0E07446
:1008500001141200C5D0E0C083C082C0E09003D272
:100860001200BAD0E0D082D083D200753200753346
:1008700000753500755000754F00754E00754300CA
:10088000754200754100755F507560017561607556
:10089000622075630275640075654575660012080F
:1008A000BB1208EA1204C8C2CAE4F530F531F532C9
:1008B000D2CA1208BB020A2A3000E9C200C0E074A2
:1008C00006141200C7D0E0C000C001A832A933123C
:1008D00000E2D001D000C0E0740F141200C7D0E0D5
:1008E000C000A8351200CCD00022C0E07401141260
:1008F00000C5D0E0C083C082C0E09003D21200BA2D
:10090000D0E0D082D083C0E07402141200C5D0E0E1
:10091000C000C001A85FA9601200E2D001D000C0F1
:10092000E07406141200C5D0E0C000C001A861A99F
:10093000621200E2D001D000C0E0740A141200C5B7
:10094000D0E0C000C001A863A9641200E2D001D0C9
:1009500000C0E0740E141200C5D0E0C000C001A8B1
:1009600065A9661200E2D001D00022C200C0E07486
:1009700006141200C7D0E0C000A8321200CCD0008C
:10098000C0E0740F141200C7D0E0C000A8351200F8
:10099000CCD000C0E07401141200C5D0E0C083C008
:1009A00082C0E09003EC1200BAD0E0D082D083C0C5
:1009B000E07404141200C5D0E0C000A8501200CCAE
:1009C000D000C000A84F1200CCD000854D52854EFB
:1009D00053854F5485505585515685404585414630
:1009E000854247854348120100C0E0740B14120091
:1009F000C5D0E0C000A84F1200CCD000C0E0742EDB
:100A000012007DD0E0C000A84E1200CCD00085526C
:100A10004D85534E85544F85555085565122C205FC
:100A2000C206C207C208C209C20A1204C8D205C25D
:100A300006C207C208C209C20AD204C0027AFA1268
:100A40000038D002C2047568007535007532007533
:100A50003300C2CAE41208BB1208EA1207B8200C1D
:100A6000191207B8300CFAE55F2401D4F55F50077E
:100A7000E5602401D4F5601208EA1207B8200D19C8
:100A80001207B8300DFAE5612401D4F5615007E58D
:100A9000622401D4F5621208EA1207B8200E191276
:100AA00007B8300EFAE5632401D4F5635007E56416
:100AB0002401D4F5641208EA1207B81204C8200F02
:100AC000191207B8300FFAE5652401D4F56550070F
:100AD000E5662401D4F5661208EA1207B8200B0D6A
:100AE0001207B8300BFA7A321204AF8003020A5BA5
:100AF000C205D206C207C208C209C20AD204C00295
:100B00007AFA120038D002C2041204C87535017591
:100B1000686475340575320075330012096B12096B
:100B2000AFD2CA1209AFC31204C8E533C394007030
:100B300016E532C394605002800DE55094007007B2
:100B4000E54FC39432407FE550C395607005E54F93
:100B5000C3955F501420020E1207B8200BC5120770
:100B6000B8300BFA8060020BC6C205C206D207C2BB
:100B700008C209C20AD204C0027AFA120038D002AE
:100B8000C2041204C87568147535027532007533D5
:100B90000012096B1209AF1204C81209AFC3C002D8
:100BA0007A32120038D002E53395627004E532954E
:100BB0006150161207B8200BDE1207B8300BFA7A14
:100BC000321204AF8000020A2AC205C206C207D24E
:100BD00008C209C20AD204C0027AFA120038D0024E
:100BE000C2041204C8756864753503753200753324
:100BF0000012096B1209AF1204C81209AFC3E55005
:100C000095647004E54F956350131207B8200BE705
:100C10001207B8300BFA7A321204AF80A9C205C2AB
:100C200006C207C208D209C20AD204C0027AFA1266
:100C30000038D002C2041204C875681475350475F2
:100C4000320075330012096B1209AF1204C8120981
:100C5000AFC3E53395667004E5329565501412070D
:100C6000B8200BE71207B8300BFA7A321204AF0241
:100C70000BC6C205C206C207C208C209D20AD20404
:100C8000C0027AFA120038D002C2041204C8756891
:100C90000075350575320075330012096B1209AF06
:100CA0001204C81209AFC374009550C37004E54F15
:100CB000946040141207B8200BE61207B8300BFA04
:0B0CC0007A321204AF020BC6020A2AAF
:00000001FF
